{
  "_format": "hh-sol-artifact-1",
  "contractName": "CryptoShop",
  "sourceName": "contracts/CryptoShop.sol",
  "abi": [
    {
      "inputs": [],
      "stateMutability": "nonpayable",
      "type": "constructor"
    },
    {
      "anonymous": false,
      "inputs": [
        {
          "indexed": false,
          "internalType": "uint256",
          "name": "index",
          "type": "uint256"
        }
      ],
      "name": "NewProduct",
      "type": "event"
    },
    {
      "inputs": [
        {
          "internalType": "string",
          "name": "description",
          "type": "string"
        },
        {
          "internalType": "uint256",
          "name": "price",
          "type": "uint256"
        },
        {
          "internalType": "uint256",
          "name": "stock",
          "type": "uint256"
        }
      ],
      "name": "addProduct",
      "outputs": [
        {
          "internalType": "uint256",
          "name": "",
          "type": "uint256"
        }
      ],
      "stateMutability": "nonpayable",
      "type": "function"
    },
    {
      "inputs": [
        {
          "internalType": "address",
          "name": "account",
          "type": "address"
        },
        {
          "internalType": "uint256",
          "name": "productId",
          "type": "uint256"
        }
      ],
      "name": "buyProduct",
      "outputs": [],
      "stateMutability": "pure",
      "type": "function"
    },
    {
      "inputs": [
        {
          "internalType": "address",
          "name": "account",
          "type": "address"
        },
        {
          "internalType": "uint256",
          "name": "purchaseId",
          "type": "uint256"
        }
      ],
      "name": "checkPayment",
      "outputs": [
        {
          "internalType": "bool",
          "name": "",
          "type": "bool"
        }
      ],
      "stateMutability": "pure",
      "type": "function"
    },
    {
      "inputs": [
        {
          "internalType": "uint16",
          "name": "index",
          "type": "uint16"
        }
      ],
      "name": "getCatalogItemAt",
      "outputs": [
        {
          "internalType": "string",
          "name": "description",
          "type": "string"
        },
        {
          "internalType": "uint256",
          "name": "price",
          "type": "uint256"
        },
        {
          "internalType": "uint256",
          "name": "stock",
          "type": "uint256"
        }
      ],
      "stateMutability": "view",
      "type": "function"
    },
    {
      "inputs": [],
      "name": "getCatalogLength",
      "outputs": [
        {
          "internalType": "uint256",
          "name": "",
          "type": "uint256"
        }
      ],
      "stateMutability": "view",
      "type": "function"
    },
    {
      "inputs": [],
      "name": "owner",
      "outputs": [
        {
          "internalType": "address",
          "name": "",
          "type": "address"
        }
      ],
      "stateMutability": "view",
      "type": "function"
    },
    {
      "inputs": [
        {
          "internalType": "uint256",
          "name": "complainId",
          "type": "uint256"
        },
        {
          "internalType": "bool",
          "name": "payToSeller",
          "type": "bool"
        }
      ],
      "name": "resolveTransaction",
      "outputs": [],
      "stateMutability": "pure",
      "type": "function"
    }
  ],
  "bytecode": "0x608060405234801561001057600080fd5b50336000806101000a81548173ffffffffffffffffffffffffffffffffffffffff021916908373ffffffffffffffffffffffffffffffffffffffff160217905550611071806100606000396000f3fe608060405234801561001057600080fd5b506004361061007d5760003560e01c80638a93f1e91161005b5780638a93f1e9146101005780638da5cb5b1461011c578063a56b23281461013a578063cddb8e941461016c5761007d565b8063125b0b3414610082578063672e691e146100b2578063840cbc7f146100d0575b600080fd5b61009c600480360381019061009791906106d7565b610188565b6040516100a9919061075a565b60405180910390f35b6100ba610323565b6040516100c7919061075a565b60405180910390f35b6100ea60048036038101906100e591906107d3565b610330565b6040516100f7919061082e565b60405180910390f35b61011a60048036038101906101159190610875565b6103ee565b005b610124610435565b60405161013191906108c4565b60405180910390f35b610154600480360381019061014f9190610919565b610459565b604051610163939291906109d6565b60405180910390f35b610186600480360381019061018191906107d3565b61057b565b005b60008083116101cc576040517f08c379a00000000000000000000000000000000000000000000000000000000081526004016101c390610a60565b60405180910390fd5b6000821161020f576040517f08c379a000000000000000000000000000000000000000000000000000000000815260040161020690610acc565b60405180910390fd5b6000604051806060016040528087878080601f016020809104026020016040519081016040528093929190818152602001838380828437600081840152601f19601f820116905080830192505050505050508152602001858152602001848152509050600181908060018154018082558091505060019003906000526020600020906003020160009091909190915060008201518160000190816102b39190610d27565b50602082015181600101556040820151816002015550506000600180805490506102dd9190610e28565b90507f4cf76794269f0514dbcdb5cbc4ab9cbdc6bf693c5c45e36dc94b2e7384d49c798160405161030e919061075a565b60405180910390a18092505050949350505050565b6000600180549050905090565b60008073ffffffffffffffffffffffffffffffffffffffff168373ffffffffffffffffffffffffffffffffffffffff16036103a0576040517f08c379a000000000000000000000000000000000000000000000000000000000815260040161039790610ea8565b60405180910390fd5b60008211156103e4576040517f08c379a00000000000000000000000000000000000000000000000000000000081526004016103db90610f14565b60405180910390fd5b6001905092915050565b60008211610431576040517f08c379a000000000000000000000000000000000000000000000000000000000815260040161042890610f80565b60405180910390fd5b5050565b60008054906101000a900473ffffffffffffffffffffffffffffffffffffffff1681565b60606000806001805490508461ffff16106104a9576040517f08c379a00000000000000000000000000000000000000000000000000000000081526004016104a090610fec565b60405180910390fd5b600060018561ffff16815481106104c3576104c261100c565b5b9060005260206000209060030201905080600001816001015482600201548280546104ed90610b4a565b80601f016020809104026020016040519081016040528092919081815260200182805461051990610b4a565b80156105665780601f1061053b57610100808354040283529160200191610566565b820191906000526020600020905b81548152906001019060200180831161054957829003601f168201915b50505050509250935093509350509193909250565b600073ffffffffffffffffffffffffffffffffffffffff168273ffffffffffffffffffffffffffffffffffffffff16036105ea576040517f08c379a00000000000000000000000000000000000000000000000000000000081526004016105e190610ea8565b60405180910390fd5b600081111561062e576040517f08c379a000000000000000000000000000000000000000000000000000000000815260040161062590610f14565b60405180910390fd5b5050565b600080fd5b600080fd5b600080fd5b600080fd5b600080fd5b60008083601f8401126106615761066061063c565b5b8235905067ffffffffffffffff81111561067e5761067d610641565b5b60208301915083600182028301111561069a57610699610646565b5b9250929050565b6000819050919050565b6106b4816106a1565b81146106bf57600080fd5b50565b6000813590506106d1816106ab565b92915050565b600080600080606085870312156106f1576106f0610632565b5b600085013567ffffffffffffffff81111561070f5761070e610637565b5b61071b8782880161064b565b9450945050602061072e878288016106c2565b925050604061073f878288016106c2565b91505092959194509250565b610754816106a1565b82525050565b600060208201905061076f600083018461074b565b92915050565b600073ffffffffffffffffffffffffffffffffffffffff82169050919050565b60006107a082610775565b9050919050565b6107b081610795565b81146107bb57600080fd5b50565b6000813590506107cd816107a7565b92915050565b600080604083850312156107ea576107e9610632565b5b60006107f8858286016107be565b9250506020610809858286016106c2565b9150509250929050565b60008115159050919050565b61082881610813565b82525050565b6000602082019050610843600083018461081f565b92915050565b61085281610813565b811461085d57600080fd5b50565b60008135905061086f81610849565b92915050565b6000806040838503121561088c5761088b610632565b5b600061089a858286016106c2565b92505060206108ab85828601610860565b9150509250929050565b6108be81610795565b82525050565b60006020820190506108d960008301846108b5565b92915050565b600061ffff82169050919050565b6108f6816108df565b811461090157600080fd5b50565b600081359050610913816108ed565b92915050565b60006020828403121561092f5761092e610632565b5b600061093d84828501610904565b91505092915050565b600081519050919050565b600082825260208201905092915050565b60005b83811015610980578082015181840152602081019050610965565b60008484015250505050565b6000601f19601f8301169050919050565b60006109a882610946565b6109b28185610951565b93506109c2818560208601610962565b6109cb8161098c565b840191505092915050565b600060608201905081810360008301526109f0818661099d565b90506109ff602083018561074b565b610a0c604083018461074b565b949350505050565b7f5072696365206d7573742062652067726561746572207468616e203000000000600082015250565b6000610a4a601c83610951565b9150610a5582610a14565b602082019050919050565b60006020820190508181036000830152610a7981610a3d565b9050919050565b7f53746f636b206d7573742062652067726561746572207468616e203000000000600082015250565b6000610ab6601c83610951565b9150610ac182610a80565b602082019050919050565b60006020820190508181036000830152610ae581610aa9565b9050919050565b7f4e487b7100000000000000000000000000000000000000000000000000000000600052604160045260246000fd5b7f4e487b7100000000000000000000000000000000000000000000000000000000600052602260045260246000fd5b60006002820490506001821680610b6257607f821691505b602082108103610b7557610b74610b1b565b5b50919050565b60008190508160005260206000209050919050565b60006020601f8301049050919050565b600082821b905092915050565b600060088302610bdd7fffffffffffffffffffffffffffffffffffffffffffffffffffffffffffffffff82610ba0565b610be78683610ba0565b95508019841693508086168417925050509392505050565b6000819050919050565b6000610c24610c1f610c1a846106a1565b610bff565b6106a1565b9050919050565b6000819050919050565b610c3e83610c09565b610c52610c4a82610c2b565b848454610bad565b825550505050565b600090565b610c67610c5a565b610c72818484610c35565b505050565b5b81811015610c9657610c8b600082610c5f565b600181019050610c78565b5050565b601f821115610cdb57610cac81610b7b565b610cb584610b90565b81016020851015610cc4578190505b610cd8610cd085610b90565b830182610c77565b50505b505050565b600082821c905092915050565b6000610cfe60001984600802610ce0565b1980831691505092915050565b6000610d178383610ced565b9150826002028217905092915050565b610d3082610946565b67ffffffffffffffff811115610d4957610d48610aec565b5b610d538254610b4a565b610d5e828285610c9a565b600060209050601f831160018114610d915760008415610d7f578287015190505b610d898582610d0b565b865550610df1565b601f198416610d9f86610b7b565b60005b82811015610dc757848901518255600182019150602085019450602081019050610da2565b86831015610de45784890151610de0601f891682610ced565b8355505b6001600288020188555050505b505050505050565b7f4e487b7100000000000000000000000000000000000000000000000000000000600052601160045260246000fd5b6000610e33826106a1565b9150610e3e836106a1565b9250828203905081811115610e5657610e55610df9565b5b92915050565b7f4163636f756e7420697320746865207a65726f20616464726573730000000000600082015250565b6000610e92601b83610951565b9150610e9d82610e5c565b602082019050919050565b60006020820190508181036000830152610ec181610e85565b9050919050565b7f496e76616c69642070726f647563742069640000000000000000000000000000600082015250565b6000610efe601283610951565b9150610f0982610ec8565b602082019050919050565b60006020820190508181036000830152610f2d81610ef1565b9050919050565b7f496e76616c696420636f6d706c61696e20696400000000000000000000000000600082015250565b6000610f6a601383610951565b9150610f7582610f34565b602082019050919050565b60006020820190508181036000830152610f9981610f5d565b9050919050565b7f4974656d206e6f7420666f756e64000000000000000000000000000000000000600082015250565b6000610fd6600e83610951565b9150610fe182610fa0565b602082019050919050565b6000602082019050818103600083015261100581610fc9565b9050919050565b7f4e487b7100000000000000000000000000000000000000000000000000000000600052603260045260246000fdfea2646970667358221220a87cfbb7e5c2fe74f659290ad4d1bc92e206eb6b4f940dda26456ba952b4b50864736f6c63430008110033",
  "linkReferences": {},
  "deployedLinkReferences": {}
}