{
  "_format": "hh-sol-artifact-1",
  "contractName": "CryptoShop",
  "sourceName": "contracts/CryptoShop.sol",
  "abi": [
    {
      "inputs": [],
      "stateMutability": "nonpayable",
      "type": "constructor"
    },
    {
      "anonymous": false,
      "inputs": [
        {
          "indexed": false,
          "internalType": "uint256",
          "name": "index",
          "type": "uint256"
        },
        {
          "components": [
            {
              "internalType": "string",
              "name": "description",
              "type": "string"
            },
            {
              "internalType": "uint256",
              "name": "price",
              "type": "uint256"
            },
            {
              "internalType": "uint256",
              "name": "stock",
              "type": "uint256"
            }
          ],
          "indexed": false,
          "internalType": "struct CryptoShop.CatalogItem",
          "name": "item",
          "type": "tuple"
        }
      ],
      "name": "NewProduct",
      "type": "event"
    },
    {
      "anonymous": false,
      "inputs": [
        {
          "indexed": true,
          "internalType": "address",
          "name": "from",
          "type": "address"
        },
        {
          "indexed": true,
          "internalType": "address",
          "name": "to",
          "type": "address"
        },
        {
          "indexed": false,
          "internalType": "uint256",
          "name": "value",
          "type": "uint256"
        }
      ],
      "name": "Transfer",
      "type": "event"
    },
    {
      "inputs": [
        {
          "internalType": "string",
          "name": "description",
          "type": "string"
        },
        {
          "internalType": "uint256",
          "name": "price",
          "type": "uint256"
        },
        {
          "internalType": "uint256",
          "name": "stock",
          "type": "uint256"
        }
      ],
      "name": "addProduct",
      "outputs": [
        {
          "internalType": "uint256",
          "name": "",
          "type": "uint256"
        }
      ],
      "stateMutability": "nonpayable",
      "type": "function"
    },
    {
      "inputs": [
        {
          "internalType": "address",
          "name": "account",
          "type": "address"
        }
      ],
      "name": "balanceOf",
      "outputs": [
        {
          "internalType": "uint256",
          "name": "",
          "type": "uint256"
        }
      ],
      "stateMutability": "view",
      "type": "function"
    },
    {
      "inputs": [
        {
          "internalType": "uint256",
          "name": "productId",
          "type": "uint256"
        },
        {
          "internalType": "uint256",
          "name": "price",
          "type": "uint256"
        },
        {
          "internalType": "uint32",
          "name": "units",
          "type": "uint32"
        },
        {
          "internalType": "address",
          "name": "to",
          "type": "address"
        }
      ],
      "name": "buyProduct",
      "outputs": [],
      "stateMutability": "nonpayable",
      "type": "function"
    },
    {
      "inputs": [
        {
          "internalType": "address",
          "name": "account",
          "type": "address"
        },
        {
          "internalType": "uint256",
          "name": "purchaseId",
          "type": "uint256"
        }
      ],
      "name": "checkPayment",
      "outputs": [
        {
          "internalType": "bool",
          "name": "",
          "type": "bool"
        }
      ],
      "stateMutability": "pure",
      "type": "function"
    },
    {
      "inputs": [
        {
          "internalType": "uint16",
          "name": "index",
          "type": "uint16"
        }
      ],
      "name": "getCatalogItemAt",
      "outputs": [
        {
          "internalType": "string",
          "name": "description",
          "type": "string"
        },
        {
          "internalType": "uint256",
          "name": "price",
          "type": "uint256"
        },
        {
          "internalType": "uint256",
          "name": "stock",
          "type": "uint256"
        }
      ],
      "stateMutability": "view",
      "type": "function"
    },
    {
      "inputs": [],
      "name": "getCatalogLength",
      "outputs": [
        {
          "internalType": "uint256",
          "name": "",
          "type": "uint256"
        }
      ],
      "stateMutability": "view",
      "type": "function"
    },
    {
      "inputs": [
        {
          "internalType": "uint256",
          "name": "",
          "type": "uint256"
        }
      ],
      "name": "itemMapped",
      "outputs": [
        {
          "internalType": "string",
          "name": "description",
          "type": "string"
        },
        {
          "internalType": "uint256",
          "name": "price",
          "type": "uint256"
        },
        {
          "internalType": "uint256",
          "name": "stock",
          "type": "uint256"
        }
      ],
      "stateMutability": "view",
      "type": "function"
    },
    {
      "inputs": [],
      "name": "owner",
      "outputs": [
        {
          "internalType": "address",
          "name": "",
          "type": "address"
        }
      ],
      "stateMutability": "view",
      "type": "function"
    },
    {
      "inputs": [
        {
          "internalType": "uint256",
          "name": "complainId",
          "type": "uint256"
        },
        {
          "internalType": "bool",
          "name": "payToSeller",
          "type": "bool"
        }
      ],
      "name": "resolveTransaction",
      "outputs": [],
      "stateMutability": "pure",
      "type": "function"
    },
    {
      "inputs": [],
      "name": "totalSupply",
      "outputs": [
        {
          "internalType": "uint256",
          "name": "",
          "type": "uint256"
        }
      ],
      "stateMutability": "view",
      "type": "function"
    }
  ],
  "bytecode": "0x6080604052600560035534801561001557600080fd5b5033600260006101000a81548173ffffffffffffffffffffffffffffffffffffffff021916908373ffffffffffffffffffffffffffffffffffffffff1602179055506003546000803373ffffffffffffffffffffffffffffffffffffffff1673ffffffffffffffffffffffffffffffffffffffff16815260200190815260200160002081905550611817806100ab6000396000f3fe608060405234801561001057600080fd5b506004361061009e5760003560e01c8063840cbc7f11610066578063840cbc7f1461015b5780638a93f1e91461018b5780638da5cb5b146101a7578063a2562d7b146101c5578063a56b2328146101f75761009e565b8063125b0b34146100a357806318160ddd146100d3578063672e691e146100f157806370a082311461010f5780637a31055c1461013f575b600080fd5b6100bd60048036038101906100b89190610bba565b610229565b6040516100ca9190610c38565b60405180910390f35b6100db610382565b6040516100e89190610c38565b60405180910390f35b6100f9610388565b6040516101069190610c38565b60405180910390f35b61012960048036038101906101249190610cb1565b610395565b6040516101369190610c38565b60405180910390f35b61015960048036038101906101549190610d1a565b610446565b005b61017560048036038101906101709190610d81565b610669565b6040516101829190610ddc565b60405180910390f35b6101a560048036038101906101a09190610e23565b610727565b005b6101af61076e565b6040516101bc9190610e72565b60405180910390f35b6101df60048036038101906101da9190610e8d565b610794565b6040516101ee93929190610f39565b60405180910390f35b610211600480360381019061020c9190610fb1565b610846565b60405161022093929190610f39565b60405180910390f35b600080831161026d576040517f08c379a00000000000000000000000000000000000000000000000000000000081526004016102649061102a565b60405180910390fd5b600082116102b0576040517f08c379a00000000000000000000000000000000000000000000000000000000081526004016102a790611096565b60405180910390fd5b600060405180606001604052808681526020018581526020018481525090506004819080600181540180825580915050600190039060005260206000209060030201600090919091909150600082015181600001908161031091906112c2565b50602082015181600101556040820151816002015550506000600160048054905061033b91906113c3565b90507f05c7bbe9ec27eb6434ea1bcf987fc4f14e5049fdeb73492978e29fe4fc262715818360405161036e9291906114a0565b60405180910390a180925050509392505050565b60035481565b6000600480549050905090565b6000610400600080600260009054906101000a900473ffffffffffffffffffffffffffffffffffffffff1673ffffffffffffffffffffffffffffffffffffffff1673ffffffffffffffffffffffffffffffffffffffff16815260200190815260200160002054610968565b6000808373ffffffffffffffffffffffffffffffffffffffff1673ffffffffffffffffffffffffffffffffffffffff168152602001908152602001600020549050919050565b600084101561048a576040517f08c379a00000000000000000000000000000000000000000000000000000000081526004016104819061151c565b60405180910390fd5b60008263ffffffff16116104d3576040517f08c379a00000000000000000000000000000000000000000000000000000000081526004016104ca906115ae565b60405180910390fd5b826000803373ffffffffffffffffffffffffffffffffffffffff1673ffffffffffffffffffffffffffffffffffffffff168152602001908152602001600020541015610554576040517f08c379a000000000000000000000000000000000000000000000000000000000815260040161054b9061161a565b60405180910390fd5b826000803373ffffffffffffffffffffffffffffffffffffffff1673ffffffffffffffffffffffffffffffffffffffff16815260200190815260200160002060008282546105a291906113c3565b92505081905550826000808373ffffffffffffffffffffffffffffffffffffffff1673ffffffffffffffffffffffffffffffffffffffff16815260200190815260200160002060008282546105f7919061163a565b925050819055508073ffffffffffffffffffffffffffffffffffffffff163373ffffffffffffffffffffffffffffffffffffffff167fddf252ad1be2c89b69c2b068fc378daa952ba7f163c4a11628f55a4df523b3ef8560405161065b9190610c38565b60405180910390a350505050565b60008073ffffffffffffffffffffffffffffffffffffffff168373ffffffffffffffffffffffffffffffffffffffff16036106d9576040517f08c379a00000000000000000000000000000000000000000000000000000000081526004016106d0906116ba565b60405180910390fd5b600082111561071d576040517f08c379a00000000000000000000000000000000000000000000000000000000081526004016107149061151c565b60405180910390fd5b6001905092915050565b6000821161076a576040517f08c379a000000000000000000000000000000000000000000000000000000000815260040161076190611726565b60405180910390fd5b5050565b600260009054906101000a900473ffffffffffffffffffffffffffffffffffffffff1681565b60016020528060005260406000206000915090508060000180546107b7906110e5565b80601f01602080910402602001604051908101604052809291908181526020018280546107e3906110e5565b80156108305780601f1061080557610100808354040283529160200191610830565b820191906000526020600020905b81548152906001019060200180831161081357829003601f168201915b5050505050908060010154908060020154905083565b60606000806004805490508461ffff1610610896576040517f08c379a000000000000000000000000000000000000000000000000000000000815260040161088d90611792565b60405180910390fd5b600060048561ffff16815481106108b0576108af6117b2565b5b9060005260206000209060030201905080600001816001015482600201548280546108da906110e5565b80601f0160208091040260200160405190810160405280929190818152602001828054610906906110e5565b80156109535780601f1061092857610100808354040283529160200191610953565b820191906000526020600020905b81548152906001019060200180831161093657829003601f168201915b50505050509250935093509350509193909250565b6109fe8160405160240161097c9190610c38565b6040516020818303038152906040527ff82c50f1000000000000000000000000000000000000000000000000000000007bffffffffffffffffffffffffffffffffffffffffffffffffffffffff19166020820180517bffffffffffffffffffffffffffffffffffffffffffffffffffffffff8381831617835250505050610a01565b50565b60008151905060006a636f6e736f6c652e6c6f679050602083016000808483855afa5050505050565b6000604051905090565b600080fd5b600080fd5b600080fd5b600080fd5b6000601f19601f8301169050919050565b7f4e487b7100000000000000000000000000000000000000000000000000000000600052604160045260246000fd5b610a9182610a48565b810181811067ffffffffffffffff82111715610ab057610aaf610a59565b5b80604052505050565b6000610ac3610a2a565b9050610acf8282610a88565b919050565b600067ffffffffffffffff821115610aef57610aee610a59565b5b610af882610a48565b9050602081019050919050565b82818337600083830152505050565b6000610b27610b2284610ad4565b610ab9565b905082815260208101848484011115610b4357610b42610a43565b5b610b4e848285610b05565b509392505050565b600082601f830112610b6b57610b6a610a3e565b5b8135610b7b848260208601610b14565b91505092915050565b6000819050919050565b610b9781610b84565b8114610ba257600080fd5b50565b600081359050610bb481610b8e565b92915050565b600080600060608486031215610bd357610bd2610a34565b5b600084013567ffffffffffffffff811115610bf157610bf0610a39565b5b610bfd86828701610b56565b9350506020610c0e86828701610ba5565b9250506040610c1f86828701610ba5565b9150509250925092565b610c3281610b84565b82525050565b6000602082019050610c4d6000830184610c29565b92915050565b600073ffffffffffffffffffffffffffffffffffffffff82169050919050565b6000610c7e82610c53565b9050919050565b610c8e81610c73565b8114610c9957600080fd5b50565b600081359050610cab81610c85565b92915050565b600060208284031215610cc757610cc6610a34565b5b6000610cd584828501610c9c565b91505092915050565b600063ffffffff82169050919050565b610cf781610cde565b8114610d0257600080fd5b50565b600081359050610d1481610cee565b92915050565b60008060008060808587031215610d3457610d33610a34565b5b6000610d4287828801610ba5565b9450506020610d5387828801610ba5565b9350506040610d6487828801610d05565b9250506060610d7587828801610c9c565b91505092959194509250565b60008060408385031215610d9857610d97610a34565b5b6000610da685828601610c9c565b9250506020610db785828601610ba5565b9150509250929050565b60008115159050919050565b610dd681610dc1565b82525050565b6000602082019050610df16000830184610dcd565b92915050565b610e0081610dc1565b8114610e0b57600080fd5b50565b600081359050610e1d81610df7565b92915050565b60008060408385031215610e3a57610e39610a34565b5b6000610e4885828601610ba5565b9250506020610e5985828601610e0e565b9150509250929050565b610e6c81610c73565b82525050565b6000602082019050610e876000830184610e63565b92915050565b600060208284031215610ea357610ea2610a34565b5b6000610eb184828501610ba5565b91505092915050565b600081519050919050565b600082825260208201905092915050565b60005b83811015610ef4578082015181840152602081019050610ed9565b60008484015250505050565b6000610f0b82610eba565b610f158185610ec5565b9350610f25818560208601610ed6565b610f2e81610a48565b840191505092915050565b60006060820190508181036000830152610f538186610f00565b9050610f626020830185610c29565b610f6f6040830184610c29565b949350505050565b600061ffff82169050919050565b610f8e81610f77565b8114610f9957600080fd5b50565b600081359050610fab81610f85565b92915050565b600060208284031215610fc757610fc6610a34565b5b6000610fd584828501610f9c565b91505092915050565b7f5072696365206d7573742062652067726561746572207468616e203000000000600082015250565b6000611014601c83610ec5565b915061101f82610fde565b602082019050919050565b6000602082019050818103600083015261104381611007565b9050919050565b7f53746f636b206d7573742062652067726561746572207468616e203000000000600082015250565b6000611080601c83610ec5565b915061108b8261104a565b602082019050919050565b600060208201905081810360008301526110af81611073565b9050919050565b7f4e487b7100000000000000000000000000000000000000000000000000000000600052602260045260246000fd5b600060028204905060018216806110fd57607f821691505b6020821081036111105761110f6110b6565b5b50919050565b60008190508160005260206000209050919050565b60006020601f8301049050919050565b600082821b905092915050565b6000600883026111787fffffffffffffffffffffffffffffffffffffffffffffffffffffffffffffffff8261113b565b611182868361113b565b95508019841693508086168417925050509392505050565b6000819050919050565b60006111bf6111ba6111b584610b84565b61119a565b610b84565b9050919050565b6000819050919050565b6111d9836111a4565b6111ed6111e5826111c6565b848454611148565b825550505050565b600090565b6112026111f5565b61120d8184846111d0565b505050565b5b81811015611231576112266000826111fa565b600181019050611213565b5050565b601f8211156112765761124781611116565b6112508461112b565b8101602085101561125f578190505b61127361126b8561112b565b830182611212565b50505b505050565b600082821c905092915050565b60006112996000198460080261127b565b1980831691505092915050565b60006112b28383611288565b9150826002028217905092915050565b6112cb82610eba565b67ffffffffffffffff8111156112e4576112e3610a59565b5b6112ee82546110e5565b6112f9828285611235565b600060209050601f83116001811461132c576000841561131a578287015190505b61132485826112a6565b86555061138c565b601f19841661133a86611116565b60005b828110156113625784890151825560018201915060208501945060208101905061133d565b8683101561137f578489015161137b601f891682611288565b8355505b6001600288020188555050505b505050505050565b7f4e487b7100000000000000000000000000000000000000000000000000000000600052601160045260246000fd5b60006113ce82610b84565b91506113d983610b84565b92508282039050818111156113f1576113f0611394565b5b92915050565b600082825260208201905092915050565b600061141382610eba565b61141d81856113f7565b935061142d818560208601610ed6565b61143681610a48565b840191505092915050565b61144a81610b84565b82525050565b6000606083016000830151848203600086015261146d8282611408565b91505060208301516114826020860182611441565b5060408301516114956040860182611441565b508091505092915050565b60006040820190506114b56000830185610c29565b81810360208301526114c78184611450565b90509392505050565b7f496e76616c69642070726f647563742069640000000000000000000000000000600082015250565b6000611506601283610ec5565b9150611511826114d0565b602082019050919050565b60006020820190508181036000830152611535816114f9565b9050919050565b7f4e6f7420656e6f7567682073746f636b20746f20636f6d706c6574652074726160008201527f6e73616374696f6e000000000000000000000000000000000000000000000000602082015250565b6000611598602883610ec5565b91506115a38261153c565b604082019050919050565b600060208201905081810360008301526115c78161158b565b9050919050565b7f4e6f7420656e6f75676820746f6b656e73000000000000000000000000000000600082015250565b6000611604601183610ec5565b915061160f826115ce565b602082019050919050565b60006020820190508181036000830152611633816115f7565b9050919050565b600061164582610b84565b915061165083610b84565b925082820190508082111561166857611667611394565b5b92915050565b7f4163636f756e7420697320746865207a65726f20616464726573730000000000600082015250565b60006116a4601b83610ec5565b91506116af8261166e565b602082019050919050565b600060208201905081810360008301526116d381611697565b9050919050565b7f496e76616c696420636f6d706c61696e20696400000000000000000000000000600082015250565b6000611710601383610ec5565b915061171b826116da565b602082019050919050565b6000602082019050818103600083015261173f81611703565b9050919050565b7f4974656d206e6f7420666f756e64000000000000000000000000000000000000600082015250565b600061177c600e83610ec5565b915061178782611746565b602082019050919050565b600060208201905081810360008301526117ab8161176f565b9050919050565b7f4e487b7100000000000000000000000000000000000000000000000000000000600052603260045260246000fdfea26469706673582212200cfd95256dcd7906fcf667b8ec952eccb870de234f5553531c4ec22d92a9b97064736f6c63430008110033",
  "linkReferences": {},
  "deployedLinkReferences": {}
}